{"address":"0x45Ee1ac1522064998d069D6E3a888459287b1eA3","bytecode":"0x60806040523480156200001157600080fd5b506040518060400160405280600a81526020017f4d6f636b204552433230000000000000000000000000000000000000000000008152506040518060400160405280600481526020017f4d4f434b0000000000000000000000000000000000000000000000000000000081525081600390816200008f919062000324565b508060049081620000a1919062000324565b5050506200040b565b600081519050919050565b7f4e487b7100000000000000000000000000000000000000000000000000000000600052604160045260246000fd5b7f4e487b7100000000000000000000000000000000000000000000000000000000600052602260045260246000fd5b600060028204905060018216806200012c57607f821691505b602082108103620001425762000141620000e4565b5b50919050565b60008190508160005260206000209050919050565b60006020601f8301049050919050565b600082821b905092915050565b600060088302620001ac7fffffffffffffffffffffffffffffffffffffffffffffffffffffffffffffffff826200016d565b620001b886836200016d565b95508019841693508086168417925050509392505050565b6000819050919050565b6000819050919050565b600062000205620001ff620001f984620001d0565b620001da565b620001d0565b9050919050565b6000819050919050565b6200022183620001e4565b6200023962000230826200020c565b8484546200017a565b825550505050565b600090565b6200025062000241565b6200025d81848462000216565b505050565b5b8181101562000285576200027960008262000246565b60018101905062000263565b5050565b601f821115620002d4576200029e8162000148565b620002a9846200015d565b81016020851015620002b9578190505b620002d1620002c8856200015d565b83018262000262565b50505b505050565b600082821c905092915050565b6000620002f960001984600802620002d9565b1980831691505092915050565b6000620003148383620002e6565b9150826002028217905092915050565b6200032f82620000aa565b67ffffffffffffffff8111156200034b576200034a620000b5565b5b62000357825462000113565b6200036482828562000289565b600060209050601f8311600181146200039c576000841562000387578287015190505b62000393858262000306565b86555062000403565b601f198416620003ac8662000148565b60005b82811015620003d657848901518255600182019150602085019450602081019050620003af565b86831015620003f65784890151620003f2601f891682620002e6565b8355505b6001600288020188555050505b505050505050565b611360806200041b6000396000f3fe608060405234801561001057600080fd5b50600436106100cf5760003560e01c806370a082311161008c578063a457c2d711610066578063a457c2d71461022a578063a9059cbb1461025a578063dd62ed3e1461028a578063e82e1b25146102ba576100cf565b806370a08231146101be5780638cb2256b146101ee57806395d89b411461020c576100cf565b806306fdde03146100d4578063095ea7b3146100f257806318160ddd1461012257806323b872dd14610140578063313ce56714610170578063395093511461018e575b600080fd5b6100dc6102d8565b6040516100e99190610bfb565b60405180910390f35b61010c60048036038101906101079190610cb6565b61036a565b6040516101199190610d11565b60405180910390f35b61012a61038d565b6040516101379190610d3b565b60405180910390f35b61015a60048036038101906101559190610d56565b610397565b6040516101679190610d11565b60405180910390f35b6101786103c6565b6040516101859190610dc5565b60405180910390f35b6101a860048036038101906101a39190610cb6565b6103cf565b6040516101b59190610d11565b60405180910390f35b6101d860048036038101906101d39190610de0565b610406565b6040516101e59190610d3b565b60405180910390f35b6101f661044e565b6040516102039190610d3b565b60405180910390f35b61021461045d565b6040516102219190610bfb565b60405180910390f35b610244600480360381019061023f9190610cb6565b6104ef565b6040516102519190610d11565b60405180910390f35b610274600480360381019061026f9190610cb6565b610566565b6040516102819190610d11565b60405180910390f35b6102a4600480360381019061029f9190610e0d565b610589565b6040516102b19190610d3b565b60405180910390f35b6102c2610610565b6040516102cf9190610d3b565b60405180910390f35b6060600380546102e790610e7c565b80601f016020809104026020016040519081016040528092919081815260200182805461031390610e7c565b80156103605780601f1061033557610100808354040283529160200191610360565b820191906000526020600020905b81548152906001019060200180831161034357829003601f168201915b5050505050905090565b600080610375610684565b905061038281858561068c565b600191505092915050565b6000600254905090565b6000806103a2610684565b90506103af858285610855565b6103ba8585856108e1565b60019150509392505050565b60006012905090565b6000806103da610684565b90506103fb8185856103ec8589610589565b6103f69190610edc565b61068c565b600191505092915050565b60008060008373ffffffffffffffffffffffffffffffffffffffff1673ffffffffffffffffffffffffffffffffffffffff168152602001908152602001600020549050919050565b6000610458610b57565b905090565b60606004805461046c90610e7c565b80601f016020809104026020016040519081016040528092919081815260200182805461049890610e7c565b80156104e55780601f106104ba576101008083540402835291602001916104e5565b820191906000526020600020905b8154815290600101906020018083116104c857829003601f168201915b5050505050905090565b6000806104fa610684565b905060006105088286610589565b90508381101561054d576040517f08c379a000000000000000000000000000000000000000000000000000000000815260040161054490610f82565b60405180910390fd5b61055a828686840361068c565b60019250505092915050565b600080610571610684565b905061057e8185856108e1565b600191505092915050565b6000600160008473ffffffffffffffffffffffffffffffffffffffff1673ffffffffffffffffffffffffffffffffffffffff16815260200190815260200160002060008373ffffffffffffffffffffffffffffffffffffffff1673ffffffffffffffffffffffffffffffffffffffff16815260200190815260200160002054905092915050565b600073__$e9c3091146a70aebd1b1bb351370642ca8$__63410986586040518163ffffffff1660e01b8152600401602060405180830381865af415801561065b573d6000803e3d6000fd5b505050506040513d601f19601f8201168201806040525081019061067f9190610fb7565b905090565b600033905090565b600073ffffffffffffffffffffffffffffffffffffffff168373ffffffffffffffffffffffffffffffffffffffff16036106fb576040517f08c379a00000000000000000000000000000000000000000000000000000000081526004016106f290611056565b60405180910390fd5b600073ffffffffffffffffffffffffffffffffffffffff168273ffffffffffffffffffffffffffffffffffffffff160361076a576040517f08c379a0000000000000000000000000000000000000000000000000000000008152600401610761906110e8565b60405180910390fd5b80600160008573ffffffffffffffffffffffffffffffffffffffff1673ffffffffffffffffffffffffffffffffffffffff16815260200190815260200160002060008473ffffffffffffffffffffffffffffffffffffffff1673ffffffffffffffffffffffffffffffffffffffff168152602001908152602001600020819055508173ffffffffffffffffffffffffffffffffffffffff168373ffffffffffffffffffffffffffffffffffffffff167f8c5be1e5ebec7d5bd14f71427d1e84f3dd0314c0f7b2291e5b200ac8c7c3b925836040516108489190610d3b565b60405180910390a3505050565b60006108618484610589565b90507fffffffffffffffffffffffffffffffffffffffffffffffffffffffffffffffff81146108db57818110156108cd576040517f08c379a00000000000000000000000000000000000000000000000000000000081526004016108c490611154565b60405180910390fd5b6108da848484840361068c565b5b50505050565b600073ffffffffffffffffffffffffffffffffffffffff168373ffffffffffffffffffffffffffffffffffffffff1603610950576040517f08c379a0000000000000000000000000000000000000000000000000000000008152600401610947906111e6565b60405180910390fd5b600073ffffffffffffffffffffffffffffffffffffffff168273ffffffffffffffffffffffffffffffffffffffff16036109bf576040517f08c379a00000000000000000000000000000000000000000000000000000000081526004016109b690611278565b60405180910390fd5b6109ca838383610b61565b60008060008573ffffffffffffffffffffffffffffffffffffffff1673ffffffffffffffffffffffffffffffffffffffff16815260200190815260200160002054905081811015610a50576040517f08c379a0000000000000000000000000000000000000000000000000000000008152600401610a479061130a565b60405180910390fd5b8181036000808673ffffffffffffffffffffffffffffffffffffffff1673ffffffffffffffffffffffffffffffffffffffff16815260200190815260200160002081905550816000808573ffffffffffffffffffffffffffffffffffffffff1673ffffffffffffffffffffffffffffffffffffffff168152602001908152602001600020600082825401925050819055508273ffffffffffffffffffffffffffffffffffffffff168473ffffffffffffffffffffffffffffffffffffffff167fddf252ad1be2c89b69c2b068fc378daa952ba7f163c4a11628f55a4df523b3ef84604051610b3e9190610d3b565b60405180910390a3610b51848484610b66565b50505050565b60006104d2905090565b505050565b505050565b600081519050919050565b600082825260208201905092915050565b60005b83811015610ba5578082015181840152602081019050610b8a565b60008484015250505050565b6000601f19601f8301169050919050565b6000610bcd82610b6b565b610bd78185610b76565b9350610be7818560208601610b87565b610bf081610bb1565b840191505092915050565b60006020820190508181036000830152610c158184610bc2565b905092915050565b600080fd5b600073ffffffffffffffffffffffffffffffffffffffff82169050919050565b6000610c4d82610c22565b9050919050565b610c5d81610c42565b8114610c6857600080fd5b50565b600081359050610c7a81610c54565b92915050565b6000819050919050565b610c9381610c80565b8114610c9e57600080fd5b50565b600081359050610cb081610c8a565b92915050565b60008060408385031215610ccd57610ccc610c1d565b5b6000610cdb85828601610c6b565b9250506020610cec85828601610ca1565b9150509250929050565b60008115159050919050565b610d0b81610cf6565b82525050565b6000602082019050610d266000830184610d02565b92915050565b610d3581610c80565b82525050565b6000602082019050610d506000830184610d2c565b92915050565b600080600060608486031215610d6f57610d6e610c1d565b5b6000610d7d86828701610c6b565b9350506020610d8e86828701610c6b565b9250506040610d9f86828701610ca1565b9150509250925092565b600060ff82169050919050565b610dbf81610da9565b82525050565b6000602082019050610dda6000830184610db6565b92915050565b600060208284031215610df657610df5610c1d565b5b6000610e0484828501610c6b565b91505092915050565b60008060408385031215610e2457610e23610c1d565b5b6000610e3285828601610c6b565b9250506020610e4385828601610c6b565b9150509250929050565b7f4e487b7100000000000000000000000000000000000000000000000000000000600052602260045260246000fd5b60006002820490506001821680610e9457607f821691505b602082108103610ea757610ea6610e4d565b5b50919050565b7f4e487b7100000000000000000000000000000000000000000000000000000000600052601160045260246000fd5b6000610ee782610c80565b9150610ef283610c80565b9250828201905080821115610f0a57610f09610ead565b5b92915050565b7f45524332303a2064656372656173656420616c6c6f77616e63652062656c6f7760008201527f207a65726f000000000000000000000000000000000000000000000000000000602082015250565b6000610f6c602583610b76565b9150610f7782610f10565b604082019050919050565b60006020820190508181036000830152610f9b81610f5f565b9050919050565b600081519050610fb181610c8a565b92915050565b600060208284031215610fcd57610fcc610c1d565b5b6000610fdb84828501610fa2565b91505092915050565b7f45524332303a20617070726f76652066726f6d20746865207a65726f2061646460008201527f7265737300000000000000000000000000000000000000000000000000000000602082015250565b6000611040602483610b76565b915061104b82610fe4565b604082019050919050565b6000602082019050818103600083015261106f81611033565b9050919050565b7f45524332303a20617070726f766520746f20746865207a65726f20616464726560008201527f7373000000000000000000000000000000000000000000000000000000000000602082015250565b60006110d2602283610b76565b91506110dd82611076565b604082019050919050565b60006020820190508181036000830152611101816110c5565b9050919050565b7f45524332303a20696e73756666696369656e7420616c6c6f77616e6365000000600082015250565b600061113e601d83610b76565b915061114982611108565b602082019050919050565b6000602082019050818103600083015261116d81611131565b9050919050565b7f45524332303a207472616e736665722066726f6d20746865207a65726f20616460008201527f6472657373000000000000000000000000000000000000000000000000000000602082015250565b60006111d0602583610b76565b91506111db82611174565b604082019050919050565b600060208201905081810360008301526111ff816111c3565b9050919050565b7f45524332303a207472616e7366657220746f20746865207a65726f206164647260008201527f6573730000000000000000000000000000000000000000000000000000000000602082015250565b6000611262602383610b76565b915061126d82611206565b604082019050919050565b6000602082019050818103600083015261129181611255565b9050919050565b7f45524332303a207472616e7366657220616d6f756e742065786365656473206260008201527f616c616e63650000000000000000000000000000000000000000000000000000602082015250565b60006112f4602683610b76565b91506112ff82611298565b604082019050919050565b60006020820190508181036000830152611323816112e7565b905091905056fea26469706673582212205ccba3ad140df802e66595ca6a37749f25b2336a87ea36d66a399bdbb91ab78c64736f6c63430008110033","abi":[{"inputs":[],"stateMutability":"nonpayable","type":"constructor"},{"anonymous":false,"inputs":[{"indexed":true,"internalType":"address","name":"owner","type":"address"},{"indexed":true,"internalType":"address","name":"spender","type":"address"},{"indexed":false,"internalType":"uint256","name":"value","type":"uint256"}],"name":"Approval","type":"event"},{"anonymous":false,"inputs":[{"indexed":true,"internalType":"address","name":"from","type":"address"},{"indexed":true,"internalType":"address","name":"to","type":"address"},{"indexed":false,"internalType":"uint256","name":"value","type":"uint256"}],"name":"Transfer","type":"event"},{"inputs":[{"internalType":"address","name":"owner","type":"address"},{"internalType":"address","name":"spender","type":"address"}],"name":"allowance","outputs":[{"internalType":"uint256","name":"","type":"uint256"}],"stateMutability":"view","type":"function"},{"inputs":[{"internalType":"address","name":"spender","type":"address"},{"internalType":"uint256","name":"amount","type":"uint256"}],"name":"approve","outputs":[{"internalType":"bool","name":"","type":"bool"}],"stateMutability":"nonpayable","type":"function"},{"inputs":[{"internalType":"address","name":"account","type":"address"}],"name":"balanceOf","outputs":[{"internalType":"uint256","name":"","type":"uint256"}],"stateMutability":"view","type":"function"},{"inputs":[],"name":"callExternalMethod","outputs":[{"internalType":"uint256","name":"","type":"uint256"}],"stateMutability":"view","type":"function"},{"inputs":[],"name":"callInternalMethod","outputs":[{"internalType":"uint256","name":"","type":"uint256"}],"stateMutability":"view","type":"function"},{"inputs":[],"name":"decimals","outputs":[{"internalType":"uint8","name":"","type":"uint8"}],"stateMutability":"view","type":"function"},{"inputs":[{"internalType":"address","name":"spender","type":"address"},{"internalType":"uint256","name":"subtractedValue","type":"uint256"}],"name":"decreaseAllowance","outputs":[{"internalType":"bool","name":"","type":"bool"}],"stateMutability":"nonpayable","type":"function"},{"inputs":[{"internalType":"address","name":"spender","type":"address"},{"internalType":"uint256","name":"addedValue","type":"uint256"}],"name":"increaseAllowance","outputs":[{"internalType":"bool","name":"","type":"bool"}],"stateMutability":"nonpayable","type":"function"},{"inputs":[],"name":"name","outputs":[{"internalType":"string","name":"","type":"string"}],"stateMutability":"view","type":"function"},{"inputs":[],"name":"symbol","outputs":[{"internalType":"string","name":"","type":"string"}],"stateMutability":"view","type":"function"},{"inputs":[],"name":"totalSupply","outputs":[{"internalType":"uint256","name":"","type":"uint256"}],"stateMutability":"view","type":"function"},{"inputs":[{"internalType":"address","name":"to","type":"address"},{"internalType":"uint256","name":"amount","type":"uint256"}],"name":"transfer","outputs":[{"internalType":"bool","name":"","type":"bool"}],"stateMutability":"nonpayable","type":"function"},{"inputs":[{"internalType":"address","name":"from","type":"address"},{"internalType":"address","name":"to","type":"address"},{"internalType":"uint256","name":"amount","type":"uint256"}],"name":"transferFrom","outputs":[{"internalType":"bool","name":"","type":"bool"}],"stateMutability":"nonpayable","type":"function"}]}