{"address":"0x9424D0fe7975C2dB88E1E2E1Cb3197C17B5cc69a","bytecode":"0x60c1610052600b82828239805160001a607314610045577f4e487b7100000000000000000000000000000000000000000000000000000000600052600060045260246000fd5b30600052607381538281f3fe730000000000000000000000000000000000000000301460806040526004361060335760003560e01c806341098658146038575b600080fd5b603e6052565b604051604991906072565b60405180910390f35b6000602a905090565b6000819050919050565b606c81605b565b82525050565b6000602082019050608560008301846065565b9291505056fea264697066735822122008671c4152857fb33002051c1fd393647dfdeb29a9c1c6c497d3bb8fc39f540464736f6c63430008110033","abi":[{"inputs":[],"name":"externalMethod","outputs":[{"internalType":"uint256","name":"","type":"uint256"}],"stateMutability":"view","type":"function"}]}